{
  "_format": "hh-sol-artifact-1",
  "contractName": "Gear",
  "sourceName": "contracts/Token.sol",
  "abi": [
    {
      "inputs": [],
      "stateMutability": "nonpayable",
      "type": "constructor"
    },
    {
      "anonymous": false,
      "inputs": [
        {
          "indexed": true,
          "internalType": "address",
          "name": "owner",
          "type": "address"
        },
        {
          "indexed": true,
          "internalType": "address",
          "name": "approved",
          "type": "address"
        },
        {
          "indexed": true,
          "internalType": "uint256",
          "name": "tokenId",
          "type": "uint256"
        }
      ],
      "name": "Approval",
      "type": "event"
    },
    {
      "anonymous": false,
      "inputs": [
        {
          "indexed": true,
          "internalType": "address",
          "name": "owner",
          "type": "address"
        },
        {
          "indexed": true,
          "internalType": "address",
          "name": "operator",
          "type": "address"
        },
        {
          "indexed": false,
          "internalType": "bool",
          "name": "approved",
          "type": "bool"
        }
      ],
      "name": "ApprovalForAll",
      "type": "event"
    },
    {
      "anonymous": false,
      "inputs": [
        {
          "indexed": true,
          "internalType": "address",
          "name": "previousOwner",
          "type": "address"
        },
        {
          "indexed": true,
          "internalType": "address",
          "name": "newOwner",
          "type": "address"
        }
      ],
      "name": "OwnershipTransferred",
      "type": "event"
    },
    {
      "anonymous": false,
      "inputs": [
        {
          "indexed": true,
          "internalType": "address",
          "name": "from",
          "type": "address"
        },
        {
          "indexed": true,
          "internalType": "address",
          "name": "to",
          "type": "address"
        },
        {
          "indexed": true,
          "internalType": "uint256",
          "name": "tokenId",
          "type": "uint256"
        }
      ],
      "name": "Transfer",
      "type": "event"
    },
    {
      "inputs": [
        {
          "internalType": "address",
          "name": "to",
          "type": "address"
        },
        {
          "internalType": "uint256",
          "name": "tokenId",
          "type": "uint256"
        }
      ],
      "name": "approve",
      "outputs": [],
      "stateMutability": "nonpayable",
      "type": "function"
    },
    {
      "inputs": [
        {
          "internalType": "address",
          "name": "owner",
          "type": "address"
        }
      ],
      "name": "balanceOf",
      "outputs": [
        {
          "internalType": "uint256",
          "name": "",
          "type": "uint256"
        }
      ],
      "stateMutability": "view",
      "type": "function"
    },
    {
      "inputs": [
        {
          "internalType": "uint256",
          "name": "tokenId",
          "type": "uint256"
        },
        {
          "internalType": "string",
          "name": "uri_string",
          "type": "string"
        }
      ],
      "name": "claim",
      "outputs": [],
      "stateMutability": "nonpayable",
      "type": "function"
    },
    {
      "inputs": [
        {
          "internalType": "uint256",
          "name": "tokenId",
          "type": "uint256"
        }
      ],
      "name": "getApproved",
      "outputs": [
        {
          "internalType": "address",
          "name": "",
          "type": "address"
        }
      ],
      "stateMutability": "view",
      "type": "function"
    },
    {
      "inputs": [
        {
          "internalType": "uint256",
          "name": "tokenId",
          "type": "uint256"
        }
      ],
      "name": "getCyberWare",
      "outputs": [
        {
          "internalType": "string",
          "name": "",
          "type": "string"
        }
      ],
      "stateMutability": "view",
      "type": "function"
    },
    {
      "inputs": [
        {
          "internalType": "uint256",
          "name": "tokenId",
          "type": "uint256"
        }
      ],
      "name": "getEyeWear",
      "outputs": [
        {
          "internalType": "string",
          "name": "",
          "type": "string"
        }
      ],
      "stateMutability": "view",
      "type": "function"
    },
    {
      "inputs": [
        {
          "internalType": "uint256",
          "name": "tokenId",
          "type": "uint256"
        }
      ],
      "name": "getFootWear",
      "outputs": [
        {
          "internalType": "string",
          "name": "",
          "type": "string"
        }
      ],
      "stateMutability": "view",
      "type": "function"
    },
    {
      "inputs": [
        {
          "internalType": "uint256",
          "name": "tokenId",
          "type": "uint256"
        }
      ],
      "name": "getHeadWear",
      "outputs": [
        {
          "internalType": "string",
          "name": "",
          "type": "string"
        }
      ],
      "stateMutability": "view",
      "type": "function"
    },
    {
      "inputs": [
        {
          "internalType": "uint256",
          "name": "tokenId",
          "type": "uint256"
        }
      ],
      "name": "getInnerChest",
      "outputs": [
        {
          "internalType": "string",
          "name": "",
          "type": "string"
        }
      ],
      "stateMutability": "view",
      "type": "function"
    },
    {
      "inputs": [
        {
          "internalType": "uint256",
          "name": "tokenId",
          "type": "uint256"
        }
      ],
      "name": "getLegWear",
      "outputs": [
        {
          "internalType": "string",
          "name": "",
          "type": "string"
        }
      ],
      "stateMutability": "view",
      "type": "function"
    },
    {
      "inputs": [
        {
          "internalType": "uint256",
          "name": "tokenId",
          "type": "uint256"
        }
      ],
      "name": "getOuterChest",
      "outputs": [
        {
          "internalType": "string",
          "name": "",
          "type": "string"
        }
      ],
      "stateMutability": "view",
      "type": "function"
    },
    {
      "inputs": [
        {
          "internalType": "uint256",
          "name": "tokenId",
          "type": "uint256"
        }
      ],
      "name": "getTokenURI",
      "outputs": [
        {
          "internalType": "string",
          "name": "",
          "type": "string"
        }
      ],
      "stateMutability": "view",
      "type": "function"
    },
    {
      "inputs": [
        {
          "internalType": "uint256",
          "name": "tokenId",
          "type": "uint256"
        }
      ],
      "name": "getWeapon",
      "outputs": [
        {
          "internalType": "string",
          "name": "",
          "type": "string"
        }
      ],
      "stateMutability": "view",
      "type": "function"
    },
    {
      "inputs": [
        {
          "internalType": "address",
          "name": "owner",
          "type": "address"
        },
        {
          "internalType": "address",
          "name": "operator",
          "type": "address"
        }
      ],
      "name": "isApprovedForAll",
      "outputs": [
        {
          "internalType": "bool",
          "name": "",
          "type": "bool"
        }
      ],
      "stateMutability": "view",
      "type": "function"
    },
    {
      "inputs": [],
      "name": "name",
      "outputs": [
        {
          "internalType": "string",
          "name": "",
          "type": "string"
        }
      ],
      "stateMutability": "view",
      "type": "function"
    },
    {
      "inputs": [],
      "name": "owner",
      "outputs": [
        {
          "internalType": "address",
          "name": "",
          "type": "address"
        }
      ],
      "stateMutability": "view",
      "type": "function"
    },
    {
      "inputs": [
        {
          "internalType": "uint256",
          "name": "tokenId",
          "type": "uint256"
        }
      ],
      "name": "ownerClaim",
      "outputs": [],
      "stateMutability": "nonpayable",
      "type": "function"
    },
    {
      "inputs": [
        {
          "internalType": "uint256",
          "name": "tokenId",
          "type": "uint256"
        }
      ],
      "name": "ownerOf",
      "outputs": [
        {
          "internalType": "address",
          "name": "",
          "type": "address"
        }
      ],
      "stateMutability": "view",
      "type": "function"
    },
    {
      "inputs": [],
      "name": "renounceOwnership",
      "outputs": [],
      "stateMutability": "nonpayable",
      "type": "function"
    },
    {
      "inputs": [
        {
          "internalType": "address",
          "name": "from",
          "type": "address"
        },
        {
          "internalType": "address",
          "name": "to",
          "type": "address"
        },
        {
          "internalType": "uint256",
          "name": "tokenId",
          "type": "uint256"
        }
      ],
      "name": "safeTransferFrom",
      "outputs": [],
      "stateMutability": "nonpayable",
      "type": "function"
    },
    {
      "inputs": [
        {
          "internalType": "address",
          "name": "from",
          "type": "address"
        },
        {
          "internalType": "address",
          "name": "to",
          "type": "address"
        },
        {
          "internalType": "uint256",
          "name": "tokenId",
          "type": "uint256"
        },
        {
          "internalType": "bytes",
          "name": "_data",
          "type": "bytes"
        }
      ],
      "name": "safeTransferFrom",
      "outputs": [],
      "stateMutability": "nonpayable",
      "type": "function"
    },
    {
      "inputs": [
        {
          "internalType": "address",
          "name": "operator",
          "type": "address"
        },
        {
          "internalType": "bool",
          "name": "approved",
          "type": "bool"
        }
      ],
      "name": "setApprovalForAll",
      "outputs": [],
      "stateMutability": "nonpayable",
      "type": "function"
    },
    {
      "inputs": [
        {
          "internalType": "bytes4",
          "name": "interfaceId",
          "type": "bytes4"
        }
      ],
      "name": "supportsInterface",
      "outputs": [
        {
          "internalType": "bool",
          "name": "",
          "type": "bool"
        }
      ],
      "stateMutability": "view",
      "type": "function"
    },
    {
      "inputs": [],
      "name": "symbol",
      "outputs": [
        {
          "internalType": "string",
          "name": "",
          "type": "string"
        }
      ],
      "stateMutability": "view",
      "type": "function"
    },
    {
      "inputs": [
        {
          "internalType": "uint256",
          "name": "index",
          "type": "uint256"
        }
      ],
      "name": "tokenByIndex",
      "outputs": [
        {
          "internalType": "uint256",
          "name": "",
          "type": "uint256"
        }
      ],
      "stateMutability": "view",
      "type": "function"
    },
    {
      "inputs": [
        {
          "internalType": "address",
          "name": "owner",
          "type": "address"
        },
        {
          "internalType": "uint256",
          "name": "index",
          "type": "uint256"
        }
      ],
      "name": "tokenOfOwnerByIndex",
      "outputs": [
        {
          "internalType": "uint256",
          "name": "",
          "type": "uint256"
        }
      ],
      "stateMutability": "view",
      "type": "function"
    },
    {
      "inputs": [
        {
          "internalType": "uint256",
          "name": "tokenId",
          "type": "uint256"
        }
      ],
      "name": "tokenURI",
      "outputs": [
        {
          "internalType": "string",
          "name": "",
          "type": "string"
        }
      ],
      "stateMutability": "view",
      "type": "function"
    },
    {
      "inputs": [],
      "name": "totalSupply",
      "outputs": [
        {
          "internalType": "uint256",
          "name": "",
          "type": "uint256"
        }
      ],
      "stateMutability": "view",
      "type": "function"
    },
    {
      "inputs": [
        {
          "internalType": "address",
          "name": "from",
          "type": "address"
        },
        {
          "internalType": "address",
          "name": "to",
          "type": "address"
        },
        {
          "internalType": "uint256",
          "name": "tokenId",
          "type": "uint256"
        }
      ],
      "name": "transferFrom",
      "outputs": [],
      "stateMutability": "nonpayable",
      "type": "function"
    },
    {
      "inputs": [
        {
          "internalType": "address",
          "name": "newOwner",
          "type": "address"
        }
      ],
      "name": "transferOwnership",
      "outputs": [],
      "stateMutability": "nonpayable",
      "type": "function"
    }
  ],
  "bytecode": "0x600d6101208181527f506c61736d6120506973746f6c00000000000000000000000000000000000000610140526080908152600b6101609081527f4c61736572205269666c650000000000000000000000000000000000000000006101805260a05260076101a09081527f5261696c67756e000000000000000000000000000000000000000000000000006101c05260c0526101e08281527f53616d757261692053776f7264000000000000000000000000000000000000006102005260e052610260604052600c6102209081527f4261736562616c6c2042617400000000000000000000000000000000000000006102405261010052620001049190600562000da4565b506040805160e081018252600d60a082019081527f426f6d626572204a61636b65740000000000000000000000000000000000000060c0830152815281518083018352600681527f486f6f64696500000000000000000000000000000000000000000000000000006020828101919091528083019190915282518084018452600f81527f546163746963616c204a61636b65740000000000000000000000000000000000818301528284015282518084018452600a81527f42616467652d436f6174000000000000000000000000000000000000000000008183015260608301528251808401909352600b83527f526f636b657220566573740000000000000000000000000000000000000000009083015260808101919091526200022e90600e90600562000da4565b506040518060a001604052806040518060400160405280600881526020017f54616e6b2d546f7000000000000000000000000000000000000000000000000081525081526020016040518060400160405280600a81526020017f547572746c656e65636b0000000000000000000000000000000000000000000081525081526020016040518060400160405280600f81526020017f4c6561746865722042757374696572000000000000000000000000000000000081525081526020016040518060400160405280600b81526020017f447265737320536869727400000000000000000000000000000000000000000081525081526020016040518060400160405280600781526020017f542d536869727400000000000000000000000000000000000000000000000000815250815250600f9060056200037192919062000da4565b506040805160e081018252600c60a082019081527f4261736562616c6c20436170000000000000000000000000000000000000000060c0830152815281518083018352600781527f42616e64616e6100000000000000000000000000000000000000000000000000602082810191909152808301919091528251808401845260138082527f426f7373204d6166696f736f205472696c6279000000000000000000000000008284015283850191909152835180850185529081527f436172626f6e2046696265722048656c6d6574000000000000000000000000008183015260608301528251808401909352600683527f4265616e696500000000000000000000000000000000000000000000000000009083015260808101919091526200049e90601090600562000da4565b506040805160e081018252600b60a082019081527f436172676f2050616e747300000000000000000000000000000000000000000060c0830152815281518083018352600e81527f4375742d6f66662053686f7274730000000000000000000000000000000000006020828101919091528083019190915282518084018452600a81527f537765617470616e747300000000000000000000000000000000000000000000818301528284015282518084018452601081527f436f72706f7261746520536c61636b73000000000000000000000000000000008183015260608301528251808401909352600d83527f4c6561746865722050616e747300000000000000000000000000000000000000908301526080810191909152620005c890601190600562000da4565b506040805160e081018252600b60a082019081527f44726573732053686f657300000000000000000000000000000000000000000060c0830152815281518083018352600c8082527f436f6d62617420426f6f747300000000000000000000000000000000000000006020838101919091528084019290925283518085018552600881527f536e65616b6572730000000000000000000000000000000000000000000000008184015283850152835180850185529081527f4d6f6e6b6579204b69636b7300000000000000000000000000000000000000008183015260608301528251808401909352600d83527f4368656c73656120426f6f747300000000000000000000000000000000000000908301526080810191909152620006f290601290600562000da4565b506040518060a001604052806040518060400160405280600881526020017f41766961746f727300000000000000000000000000000000000000000000000081525081526020016040518060400160405280600881526020017f457965706174636800000000000000000000000000000000000000000000000081525081526020016040518060400160405280600c81526020017f5465636820476f67676c6573000000000000000000000000000000000000000081525081526020016040518060400160405280600581526020017f4d656e706f00000000000000000000000000000000000000000000000000000081525081526020016040518060400160405280601081526020017f53706f72742053756e676c61737365730000000000000000000000000000000081525081525060139060056200083592919062000da4565b506040518060a001604052806040518060400160405280601081526020017f4d6563686174726f6e696320436f72650000000000000000000000000000000081525081526020016040518060400160405280601081526020017f4f70746963616c20456e68616e6365720000000000000000000000000000000081525081526020016040518060400160405280601481526020017f53796e617074696320416363656c657261746f7200000000000000000000000081525081526020016040518060400160405280600d81526020017f42696f6e6963204a6f696e74730000000000000000000000000000000000000081525081526020016040518060400160405280600f81526020017f5375626465726d616c2041726d6f72000000000000000000000000000000000081525081525060149060056200097892919062000da4565b506040805160e081018252600660a082019081527f50737963686f000000000000000000000000000000000000000000000000000060c0830152815281518083018352600d81527f506f6c79636172626f6e617465000000000000000000000000000000000000006020828101919091528083019190915282518084018452600e81527f486561742d526573697374616e74000000000000000000000000000000000000818301528284015282518084018452600a8082527f5265696e666f7263656400000000000000000000000000000000000000000000828401526060840191909152835180850190945283527f556c7472616c696768740000000000000000000000000000000000000000000090830152608081019190915262000aa490601590600562000da4565b506040805160c0810182526006608082018181527f41746f6d6963000000000000000000000000000000000000000000000000000060a0840152825282518084018452600581527f4d656368610000000000000000000000000000000000000000000000000000006020828101919091528084019190915283518085018552600381527f566f780000000000000000000000000000000000000000000000000000000000818301528385015283518085019094529083527f4379626f7267000000000000000000000000000000000000000000000000000090830152606081019190915262000b9890601690600462000e08565b506040805160c0810182526006608082019081527f566563746f72000000000000000000000000000000000000000000000000000060a083015281528151808301835260038082527f496365000000000000000000000000000000000000000000000000000000000060208381019190915280840192909252835180850185529081527f4e6574000000000000000000000000000000000000000000000000000000000081830152828401528251808401909352600783527f4d616368696e650000000000000000000000000000000000000000000000000090830152606081019190915262000c8d90601790600462000e08565b5034801562000c9b57600080fd5b50604080518082018252600781527f6e696b6c6f6f740000000000000000000000000000000000000000000000000060208083019182528351808501909452600584527f6e6c6f6f7400000000000000000000000000000000000000000000000000000090840152815191929162000d169160009162000e5a565b50805162000d2c90600190602084019062000e5a565b50506001600a555062000d4862000d4262000d4e565b62000d52565b62000fb8565b3390565b600b80546001600160a01b038381166001600160a01b0319831681179093556040519116919082907f8be0079c531659141344cd1fd0a4f28419497f9722a3daafe3b4186f6b6457e090600090a35050565b82805482825590600052602060002090810192821562000df6579160200282015b8281111562000df6578251805162000de591849160209091019062000e5a565b509160200191906001019062000dc5565b5062000e0492915062000ee5565b5090565b82805482825590600052602060002090810192821562000df6579160200282015b8281111562000df6578251805162000e4991849160209091019062000e5a565b509160200191906001019062000e29565b82805462000e689062000f62565b90600052602060002090601f01602090048101928262000e8c576000855562000ed7565b82601f1062000ea757805160ff191683800117855562000ed7565b8280016001018555821562000ed7579182015b8281111562000ed757825182559160200191906001019062000eba565b5062000e0492915062000f06565b8082111562000e0457600062000efc828262000f1d565b5060010162000ee5565b5b8082111562000e04576000815560010162000f07565b50805462000f2b9062000f62565b6000825580601f1062000f3f575062000f5f565b601f01602090049060005260206000209081019062000f5f919062000f06565b50565b60028104600182168062000f7757607f821691505b6020821081141562000fb2577f4e487b7100000000000000000000000000000000000000000000000000000000600052602260045260246000fd5b50919050565b6134cf8062000fc86000396000f3fe608060405234801561001057600080fd5b50600436106101da5760003560e01c8063715018a611610104578063a22cb465116100a2578063c87b56dd11610071578063c87b56dd146103d5578063e64c11e2146103e8578063e985e9c5146103fb578063f2fde38b1461040e576101da565b8063a22cb46514610389578063ad8f49401461039c578063ae1cf38f146103af578063b88d4fde146103c2576101da565b80638da5cb5b116100de5780638da5cb5b1461035357806392a9c9341461035b57806395d89b411461036e5780639e41b73f14610376576101da565b8063715018a61461032557806376a6b33c1461032d57806385af54c714610340576101da565b8063268b15ed1161017c578063434f48c41161014b578063434f48c4146102d95780634f6ccce7146102ec5780636352211e146102ff57806370a0823114610312576101da565b8063268b15ed1461028d5780632f745c59146102a05780633bb3a24d146102b357806342842e0e146102c6576101da565b8063095ea7b3116101b8578063095ea7b31461023d57806318160ddd146102525780631e4e0e6e1461026757806323b872dd1461027a576101da565b806301ffc9a7146101df57806306fdde0314610208578063081812fc1461021d575b600080fd5b6101f26101ed36600461264f565b610421565b6040516101ff9190612b5c565b60405180910390f35b61021061044e565b6040516101ff9190612b67565b61023061022b366004612687565b6104e0565b6040516101ff9190612b0b565b61025061024b366004612626565b61052c565b005b61025a6105c4565b6040516101ff91906130d5565b610210610275366004612687565b6105ca565b610250610288366004612538565b6106c5565b61025061029b36600461269f565b6106fd565b61025a6102ae366004612626565b610775565b6102106102c1366004612687565b6107c7565b6102506102d4366004612538565b610869565b6102506102e7366004612687565b610884565b61025a6102fa366004612687565b610932565b61023061030d366004612687565b61098d565b61025a6103203660046124e5565b6109c2565b610250610a06565b61021061033b366004612687565b610a51565b61021061034e366004612687565b610b41565b610230610c31565b610210610369366004612687565b610c40565b610210610d31565b610210610384366004612687565b610d40565b6102506103973660046125ec565b610e33565b6102106103aa366004612687565b610f01565b6102106103bd366004612687565b610ff3565b6102506103d0366004612573565b6110e4565b6102106103e3366004612687565b611123565b6102106103f6366004612687565b6113cd565b6101f2610409366004612506565b6114bf565b61025061041c3660046124e5565b6114ed565b60006001600160e01b0319821663780e9d6360e01b148061044657506104468261155e565b90505b919050565b60606000805461045d90613178565b80601f016020809104026020016040519081016040528092919081815260200182805461048990613178565b80156104d65780601f106104ab576101008083540402835291602001916104d6565b820191906000526020600020905b8154815290600101906020018083116104b957829003601f168201915b5050505050905090565b60006104eb8261159e565b6105105760405162461bcd60e51b815260040161050790612e80565b60405180910390fd5b506000908152600460205260409020546001600160a01b031690565b60006105378261098d565b9050806001600160a01b0316836001600160a01b0316141561056b5760405162461bcd60e51b815260040161050790612fc0565b806001600160a01b031661057d6115bb565b6001600160a01b031614806105995750610599816104096115bb565b6105b55760405162461bcd60e51b815260040161050790612d5b565b6105bf83836115bf565b505050565b60085490565b6060610446826040518060400160405280600581526020016424a72722a960d91b815250600f805480602002602001604051908101604052809291908181526020016000905b828210156106bc57838290600052602060002001805461062f90613178565b80601f016020809104026020016040519081016040528092919081815260200182805461065b90613178565b80156106a85780601f1061067d576101008083540402835291602001916106a8565b820191906000526020600020905b81548152906001019060200180831161068b57829003601f168201915b505050505081526020019060010190610610565b5050505061162d565b6106d66106d06115bb565b82611958565b6106f25760405162461bcd60e51b815260040161050790613001565b6105bf8383836119dd565b6002600a5414156107205760405162461bcd60e51b81526004016105079061309e565b6002600a5581158015906107355750611e6282105b6107515760405162461bcd60e51b815260040161050790612f4d565b61076261075c6115bb565b83611b0a565b61076c8282611b28565b50506001600a55565b6000610780836109c2565b821061079e5760405162461bcd60e51b815260040161050790612b7a565b506001600160a01b03919091166000908152600660209081526040808320938352929052205490565b6000818152600c602052604090208054606091906107e490613178565b80601f016020809104026020016040519081016040528092919081815260200182805461081090613178565b801561085d5780601f106108325761010080835404028352916020019161085d565b820191906000526020600020905b81548152906001019060200180831161084057829003601f168201915b50505050509050919050565b6105bf838383604051806020016040528060008152506110e4565b6002600a5414156108a75760405162461bcd60e51b81526004016105079061309e565b6002600a556108b46115bb565b6001600160a01b03166108c5610c31565b6001600160a01b0316146108eb5760405162461bcd60e51b815260040161050790612f18565b611e61811180156108fd5750611f4181105b6109195760405162461bcd60e51b815260040161050790612f4d565b61092a610924610c31565b82611b0a565b506001600a55565b600061093c6105c4565b821061095a5760405162461bcd60e51b815260040161050790613052565b6008828154811061097b57634e487b7160e01b600052603260045260246000fd5b90600052602060002001549050919050565b6000818152600260205260408120546001600160a01b0316806104465760405162461bcd60e51b815260040161050790612e02565b60006001600160a01b0382166109ea5760405162461bcd60e51b815260040161050790612db8565b506001600160a01b031660009081526003602052604090205490565b610a0e6115bb565b6001600160a01b0316610a1f610c31565b6001600160a01b031614610a455760405162461bcd60e51b815260040161050790612f18565b610a4f6000611b6c565b565b6060610446826040518060400160405280600381526020016245594560e81b8152506013805480602002602001604051908101604052809291908181526020016000905b828210156106bc578382906000526020600020018054610ab490613178565b80601f0160208091040260200160405190810160405280929190818152602001828054610ae090613178565b8015610b2d5780601f10610b0257610100808354040283529160200191610b2d565b820191906000526020600020905b815481529060010190602001808311610b1057829003601f168201915b505050505081526020019060010190610a95565b606061044682604051806040016040528060038152602001624c454760e81b8152506011805480602002602001604051908101604052809291908181526020016000905b828210156106bc578382906000526020600020018054610ba490613178565b80601f0160208091040260200160405190810160405280929190818152602001828054610bd090613178565b8015610c1d5780601f10610bf257610100808354040283529160200191610c1d565b820191906000526020600020905b815481529060010190602001808311610c0057829003601f168201915b505050505081526020019060010190610b85565b600b546001600160a01b031690565b606061044682604051806040016040528060048152602001631211505160e21b8152506010805480602002602001604051908101604052809291908181526020016000905b828210156106bc578382906000526020600020018054610ca490613178565b80601f0160208091040260200160405190810160405280929190818152602001828054610cd090613178565b8015610d1d5780601f10610cf257610100808354040283529160200191610d1d565b820191906000526020600020905b815481529060010190602001808311610d0057829003601f168201915b505050505081526020019060010190610c85565b60606001805461045d90613178565b606061044682604051806040016040528060068152602001652ba2a0a827a760d11b815250600d805480602002602001604051908101604052809291908181526020016000905b828210156106bc578382906000526020600020018054610da690613178565b80601f0160208091040260200160405190810160405280929190818152602001828054610dd290613178565b8015610e1f5780601f10610df457610100808354040283529160200191610e1f565b820191906000526020600020905b815481529060010190602001808311610e0257829003601f168201915b505050505081526020019060010190610d87565b610e3b6115bb565b6001600160a01b0316826001600160a01b03161415610e6c5760405162461bcd60e51b815260040161050790612cd8565b8060056000610e796115bb565b6001600160a01b03908116825260208083019390935260409182016000908120918716808252919093529120805460ff191692151592909217909155610ebd6115bb565b6001600160a01b03167f17307eab39ab6107e8899845ad3d59bd9653f200f220920489ca2b5937696c3183604051610ef59190612b5c565b60405180910390a35050565b6060610446826040518060400160405280600581526020016421aca122a960d91b8152506014805480602002602001604051908101604052809291908181526020016000905b828210156106bc578382906000526020600020018054610f6690613178565b80601f0160208091040260200160405190810160405280929190818152602001828054610f9290613178565b8015610fdf5780601f10610fb457610100808354040283529160200191610fdf565b820191906000526020600020905b815481529060010190602001808311610fc257829003601f168201915b505050505081526020019060010190610f47565b606061044682604051806040016040528060048152602001631193d3d560e21b8152506012805480602002602001604051908101604052809291908181526020016000905b828210156106bc57838290600052602060002001805461105790613178565b80601f016020809104026020016040519081016040528092919081815260200182805461108390613178565b80156110d05780601f106110a5576101008083540402835291602001916110d0565b820191906000526020600020905b8154815290600101906020018083116110b357829003601f168201915b505050505081526020019060010190611038565b6110f56110ef6115bb565b83611958565b6111115760405162461bcd60e51b815260040161050790613001565b61111d84848484611bbe565b50505050565b606061112d612384565b604051806101400160405280610103815260200161336f6101039139815261115483610d40565b8160016020020181905250604051806060016040528060288152602001613472602891396040820152611186836113cd565b606080830191909152604080519182019052602880825261323b602083013960808201526111b3836105ca565b60a0820152604080516060810190915260288082526132b5602083013960c08201526111de83610c40565b60e0820152604080516060810190915260298082526132dd602083013961010082015261120a83610b41565b6101208201526040805160608101909152602980825261328c602083013961014082015261123783610ff3565b61016082015260408051606081019091526029808252613306602083013961018082015261126483610a51565b6101a08201526040805160608101909152602980825261326360208301396101c082015261129183610f01565b6101e0820152604080518082018252600d81526c1e17ba32bc3a1f1e17b9bb339f60991b602080830191909152610200840191909152825181840151838501516060860151608087015160a088015160c089015160e08a01516101008b0151995160009a6113019a909101612797565b60408051808303601f19018152908290526101208401516101408501516101608601516101808701516101a08801516101c08901516101e08a01516102008b0151979950611354988a9890602001612797565b604051602081830303815290604052905060006113a161137386611bf1565b61137c84611d0c565b60405160200161138d929190612a36565b604051602081830303815290604052611d0c565b9050806040516020016113b491906129f1565b60408051808303601f1901815291905295945050505050565b6060610446826040518060400160405280600581526020016427aaaa22a960d91b815250600e805480602002602001604051908101604052809291908181526020016000905b828210156106bc57838290600052602060002001805461143290613178565b80601f016020809104026020016040519081016040528092919081815260200182805461145e90613178565b80156114ab5780601f10611480576101008083540402835291602001916114ab565b820191906000526020600020905b81548152906001019060200180831161148e57829003601f168201915b505050505081526020019060010190611413565b6001600160a01b03918216600090815260056020908152604080832093909416825291909152205460ff1690565b6114f56115bb565b6001600160a01b0316611506610c31565b6001600160a01b03161461152c5760405162461bcd60e51b815260040161050790612f18565b6001600160a01b0381166115525760405162461bcd60e51b815260040161050790612c17565b61155b81611b6c565b50565b60006001600160e01b031982166380ac58cd60e01b148061158f57506001600160e01b03198216635b5e139f60e01b145b80610446575061044682611e80565b6000908152600260205260409020546001600160a01b0316151590565b3390565b600081815260046020526040902080546001600160a01b0319166001600160a01b03841690811790915581906115f48261098d565b6001600160a01b03167f8c5be1e5ebec7d5bd14f71427d1e84f3dd0314c0f7b2291e5b200ac8c7c3b92560405160405180910390a45050565b606060006116638461163e87611bf1565b60405160200161164f929190612768565b604051602081830303815290604052611e99565b905060008384518361167591906131ce565b8151811061169357634e487b7160e01b600052603260045260246000fd5b6020026020010151905060006033836116ac91906131ce565b9050602881111561171157601580546116c590856131ce565b815481106116e357634e487b7160e01b600052603260045260246000fd5b90600052602060002001826040516020016116ff929190612857565b60405160208183030381529060405291505b6031811061194e576117216123ac565b6016805461172f90866131ce565b8154811061174d57634e487b7160e01b600052603260045260246000fd5b90600052602060002001805461176290613178565b80601f016020809104026020016040519081016040528092919081815260200182805461178e90613178565b80156117db5780601f106117b0576101008083540402835291602001916117db565b820191906000526020600020905b8154815290600101906020018083116117be57829003601f168201915b50505050508160006002811061180157634e487b7160e01b600052603260045260246000fd5b60200201526017805461181490866131ce565b8154811061183257634e487b7160e01b600052603260045260246000fd5b90600052602060002001805461184790613178565b80601f016020809104026020016040519081016040528092919081815260200182805461187390613178565b80156118c05780601f10611895576101008083540402835291602001916118c0565b820191906000526020600020905b8154815290600101906020018083116118a357829003601f168201915b5050505050816001600281106118e657634e487b7160e01b600052603260045260246000fd5b6020020152603182141561192257805160208083015160405161190c9392879101612905565b604051602081830303815290604052925061194c565b805160208083015160405161193a9392879101612973565b60405160208183030381529060405292505b505b5095945050505050565b60006119638261159e565b61197f5760405162461bcd60e51b815260040161050790612d0f565b600061198a8361098d565b9050806001600160a01b0316846001600160a01b031614806119c55750836001600160a01b03166119ba846104e0565b6001600160a01b0316145b806119d557506119d581856114bf565b949350505050565b826001600160a01b03166119f08261098d565b6001600160a01b031614611a165760405162461bcd60e51b815260040161050790612f77565b6001600160a01b038216611a3c5760405162461bcd60e51b815260040161050790612c94565b611a47838383611eca565b611a526000826115bf565b6001600160a01b0383166000908152600360205260408120805460019290611a7b908490613135565b90915550506001600160a01b0382166000908152600360205260408120805460019290611aa99084906130ea565b909155505060008181526002602052604080822080546001600160a01b0319166001600160a01b0386811691821790925591518493918716917fddf252ad1be2c89b69c2b068fc378daa952ba7f163c4a11628f55a4df523b3ef91a4505050565b611b24828260405180602001604052806000815250611f53565b5050565b611b318261159e565b611b4d5760405162461bcd60e51b815260040161050790612ecc565b6000828152600c6020908152604090912082516105bf928401906123c5565b600b80546001600160a01b038381166001600160a01b0319831681179093556040519116919082907f8be0079c531659141344cd1fd0a4f28419497f9722a3daafe3b4186f6b6457e090600090a35050565b611bc98484846119dd565b611bd584848484611f86565b61111d5760405162461bcd60e51b815260040161050790612bc5565b606081611c1657506040805180820190915260018152600360fc1b6020820152610449565b8160005b8115611c405780611c2a816131b3565b9150611c399050600a83613102565b9150611c1a565b60008167ffffffffffffffff811115611c6957634e487b7160e01b600052604160045260246000fd5b6040519080825280601f01601f191660200182016040528015611c93576020820181803683370190505b5090505b84156119d557611ca8600183613135565b9150611cb5600a866131ce565b611cc09060306130ea565b60f81b818381518110611ce357634e487b7160e01b600052603260045260246000fd5b60200101906001600160f81b031916908160001a905350611d05600a86613102565b9450611c97565b805160609080611d2c575050604080516020810190915260008152610449565b60006003611d3b8360026130ea565b611d459190613102565b611d50906004613116565b90506000611d5f8260206130ea565b67ffffffffffffffff811115611d8557634e487b7160e01b600052604160045260246000fd5b6040519080825280601f01601f191660200182016040528015611daf576020820181803683370190505b509050600060405180606001604052806040815260200161332f604091399050600181016020830160005b86811015611e3b576003818a01810151603f601282901c8116860151600c83901c8216870151600684901c831688015192909316870151600891821b60ff94851601821b92841692909201901b91160160e01b835260049092019101611dda565b506003860660018114611e555760028114611e6657611e72565b613d3d60f01b600119830152611e72565b603d60f81b6000198301525b505050918152949350505050565b6001600160e01b031981166301ffc9a760e01b14919050565b600081604051602001611eac919061274c565b60408051601f19818403018152919052805160209091012092915050565b611ed58383836105bf565b6001600160a01b038316611ef157611eec816120a1565b611f14565b816001600160a01b0316836001600160a01b031614611f1457611f1483826120e5565b6001600160a01b038216611f3057611f2b81612182565b6105bf565b826001600160a01b0316826001600160a01b0316146105bf576105bf828261225b565b611f5d838361229f565b611f6a6000848484611f86565b6105bf5760405162461bcd60e51b815260040161050790612bc5565b6000611f9a846001600160a01b031661237e565b1561209657836001600160a01b031663150b7a02611fb66115bb565b8786866040518563ffffffff1660e01b8152600401611fd89493929190612b1f565b602060405180830381600087803b158015611ff257600080fd5b505af1925050508015612022575060408051601f3d908101601f1916820190925261201f9181019061266b565b60015b61207c573d808015612050576040519150601f19603f3d011682016040523d82523d6000602084013e612055565b606091505b5080516120745760405162461bcd60e51b815260040161050790612bc5565b805181602001fd5b6001600160e01b031916630a85bd0160e11b1490506119d5565b506001949350505050565b600880546000838152600960205260408120829055600182018355919091527ff3f7a9fe364faab93b216da50a3214154f22a0a2b415b23a84c8169e8b636ee30155565b600060016120f2846109c2565b6120fc9190613135565b60008381526007602052604090205490915080821461214f576001600160a01b03841660009081526006602090815260408083208584528252808320548484528184208190558352600790915290208190555b5060009182526007602090815260408084208490556001600160a01b039094168352600681528383209183525290812055565b60085460009061219490600190613135565b600083815260096020526040812054600880549394509092849081106121ca57634e487b7160e01b600052603260045260246000fd5b9060005260206000200154905080600883815481106121f957634e487b7160e01b600052603260045260246000fd5b600091825260208083209091019290925582815260099091526040808220849055858252812055600880548061223f57634e487b7160e01b600052603160045260246000fd5b6001900381819060005260206000200160009055905550505050565b6000612266836109c2565b6001600160a01b039093166000908152600660209081526040808320868452825280832085905593825260079052919091209190915550565b6001600160a01b0382166122c55760405162461bcd60e51b815260040161050790612e4b565b6122ce8161159e565b156122eb5760405162461bcd60e51b815260040161050790612c5d565b6122f760008383611eca565b6001600160a01b03821660009081526003602052604081208054600192906123209084906130ea565b909155505060008181526002602052604080822080546001600160a01b0319166001600160a01b03861690811790915590518392907fddf252ad1be2c89b69c2b068fc378daa952ba7f163c4a11628f55a4df523b3ef908290a45050565b3b151590565b6040518061022001604052806011905b60608152602001906001900390816123945790505090565b6040805180820190915260608152600160208201612394565b8280546123d190613178565b90600052602060002090601f0160209004810192826123f35760008555612439565b82601f1061240c57805160ff1916838001178555612439565b82800160010185558215612439579182015b8281111561243957825182559160200191906001019061241e565b50612445929150612449565b5090565b5b80821115612445576000815560010161244a565b600067ffffffffffffffff808411156124795761247961320e565b604051601f8501601f19168101602001828111828210171561249d5761249d61320e565b6040528481529150818385018610156124b557600080fd5b8484602083013760006020868301015250509392505050565b80356001600160a01b038116811461044957600080fd5b6000602082840312156124f6578081fd5b6124ff826124ce565b9392505050565b60008060408385031215612518578081fd5b612521836124ce565b915061252f602084016124ce565b90509250929050565b60008060006060848603121561254c578081fd5b612555846124ce565b9250612563602085016124ce565b9150604084013590509250925092565b60008060008060808587031215612588578081fd5b612591856124ce565b935061259f602086016124ce565b925060408501359150606085013567ffffffffffffffff8111156125c1578182fd5b8501601f810187136125d1578182fd5b6125e08782356020840161245e565b91505092959194509250565b600080604083850312156125fe578182fd5b612607836124ce565b91506020830135801515811461261b578182fd5b809150509250929050565b60008060408385031215612638578182fd5b612641836124ce565b946020939093013593505050565b600060208284031215612660578081fd5b81356124ff81613224565b60006020828403121561267c578081fd5b81516124ff81613224565b600060208284031215612698578081fd5b5035919050565b600080604083850312156126b1578182fd5b82359150602083013567ffffffffffffffff8111156126ce578182fd5b8301601f810185136126de578182fd5b6126ed8582356020840161245e565b9150509250929050565b6000815180845261270f81602086016020860161314c565b601f01601f19169290920160200192915050565b6000815161273581856020860161314c565b9290920192915050565b600160fd1b815260010190565b6000825161275e81846020870161314c565b9190910192915050565b6000835161277a81846020880161314c565b83519083019061278e81836020880161314c565b01949350505050565b60008a516127a9818460208f0161314c565b8a516127bb8183860160208f0161314c565b8a5191840101906127d0818360208e0161314c565b89516127e28183850160208e0161314c565b89519290910101906127f8818360208c0161314c565b875161280a8183850160208c0161314c565b8751929091010190612820818360208a0161314c565b855191019061283381836020890161314c565b8451612845818385016020890161314c565b9101019b9a5050505050505050505050565b825460009081906002810460018083168061287357607f831692505b602080841082141561289357634e487b7160e01b87526022600452602487fd5b8180156128a757600181146128b8576128e4565b60ff198616895284890196506128e4565b6128c18b6130de565b885b868110156128dc5781548b8201529085019083016128c3565b505084890196505b5050505050506128fc6128f68261273f565b85612723565b95945050505050565b601160f91b8152835160009061292281600185016020890161314c565b600160fd1b600191840191820152845161294381600284016020890161314c565b61011160f51b60029290910191820152835161296681600484016020880161314c565b0160040195945050505050565b601160f91b8152835160009061299081600185016020890161314c565b600160fd1b60019184019182015284516129b181600284016020890161314c565b61011160f51b6002929091019182015283516129d481600484016020880161314c565b62202b3160e81b6004929091019182015260070195945050505050565b60007f646174613a6170706c69636174696f6e2f6a736f6e3b6261736536342c00000082528251612a2981601d85016020870161314c565b91909101601d0192915050565b747b226e616d65223a20224e696b73206c6f6f74202360581b81528251600090612a6781601585016020880161314c565b7f222c20226465736372697074696f6e223a202272616e646f6d6c792067656e656015918401918201527f72617465642062616773206f66206c6f6f742e222c2022696d616765223a202260358201527f646174613a696d6167652f7376672b786d6c3b6261736536342c00000000000060558201528351612af081606f84016020880161314c565b61227d60f01b606f9290910191820152607101949350505050565b6001600160a01b0391909116815260200190565b6001600160a01b0385811682528416602082015260408101839052608060608201819052600090612b52908301846126f7565b9695505050505050565b901515815260200190565b6000602082526124ff60208301846126f7565b6020808252602b908201527f455243373231456e756d657261626c653a206f776e657220696e646578206f7560408201526a74206f6620626f756e647360a81b606082015260800190565b60208082526032908201527f4552433732313a207472616e7366657220746f206e6f6e20455243373231526560408201527131b2b4bb32b91034b6b83632b6b2b73a32b960711b606082015260800190565b60208082526026908201527f4f776e61626c653a206e6577206f776e657220697320746865207a65726f206160408201526564647265737360d01b606082015260800190565b6020808252601c908201527f4552433732313a20746f6b656e20616c7265616479206d696e74656400000000604082015260600190565b60208082526024908201527f4552433732313a207472616e7366657220746f20746865207a65726f206164646040820152637265737360e01b606082015260800190565b60208082526019908201527f4552433732313a20617070726f766520746f2063616c6c657200000000000000604082015260600190565b6020808252602c908201527f4552433732313a206f70657261746f7220717565727920666f72206e6f6e657860408201526b34b9ba32b73a103a37b5b2b760a11b606082015260800190565b60208082526038908201527f4552433732313a20617070726f76652063616c6c6572206973206e6f74206f7760408201527f6e6572206e6f7220617070726f76656420666f7220616c6c0000000000000000606082015260800190565b6020808252602a908201527f4552433732313a2062616c616e636520717565727920666f7220746865207a65604082015269726f206164647265737360b01b606082015260800190565b60208082526029908201527f4552433732313a206f776e657220717565727920666f72206e6f6e657869737460408201526832b73a103a37b5b2b760b91b606082015260800190565b6020808252818101527f4552433732313a206d696e7420746f20746865207a65726f2061646472657373604082015260600190565b6020808252602c908201527f4552433732313a20617070726f76656420717565727920666f72206e6f6e657860408201526b34b9ba32b73a103a37b5b2b760a11b606082015260800190565b6020808252602c908201527f4552433732314d657461646174613a2055524920736574206f66206e6f6e657860408201526b34b9ba32b73a103a37b5b2b760a11b606082015260800190565b6020808252818101527f4f776e61626c653a2063616c6c6572206973206e6f7420746865206f776e6572604082015260600190565b60208082526010908201526f151bdad95b881251081a5b9d985b1a5960821b604082015260600190565b60208082526029908201527f4552433732313a207472616e73666572206f6620746f6b656e2074686174206960408201526839903737ba1037bbb760b91b606082015260800190565b60208082526021908201527f4552433732313a20617070726f76616c20746f2063757272656e74206f776e656040820152603960f91b606082015260800190565b60208082526031908201527f4552433732313a207472616e736665722063616c6c6572206973206e6f74206f6040820152701ddb995c881b9bdc88185c1c1c9bdd9959607a1b606082015260800190565b6020808252602c908201527f455243373231456e756d657261626c653a20676c6f62616c20696e646578206f60408201526b7574206f6620626f756e647360a01b606082015260800190565b6020808252601f908201527f5265656e7472616e637947756172643a207265656e7472616e742063616c6c00604082015260600190565b90815260200190565b60009081526020902090565b600082198211156130fd576130fd6131e2565b500190565b600082613111576131116131f8565b500490565b6000816000190483118215151615613130576131306131e2565b500290565b600082821015613147576131476131e2565b500390565b60005b8381101561316757818101518382015260200161314f565b8381111561111d5750506000910152565b60028104600182168061318c57607f821691505b602082108114156131ad57634e487b7160e01b600052602260045260246000fd5b50919050565b60006000198214156131c7576131c76131e2565b5060010190565b6000826131dd576131dd6131f8565b500690565b634e487b7160e01b600052601160045260246000fd5b634e487b7160e01b600052601260045260246000fd5b634e487b7160e01b600052604160045260246000fd5b6001600160e01b03198116811461155b57600080fdfe3c2f746578743e3c7465787420783d2231302220793d2236302220636c6173733d2262617365223e3c2f746578743e3c7465787420783d2231302220793d223136302220636c6173733d2262617365223e3c2f746578743e3c7465787420783d2231302220793d223132302220636c6173733d2262617365223e3c2f746578743e3c7465787420783d2231302220793d2238302220636c6173733d2262617365223e3c2f746578743e3c7465787420783d2231302220793d223130302220636c6173733d2262617365223e3c2f746578743e3c7465787420783d2231302220793d223134302220636c6173733d2262617365223e4142434445464748494a4b4c4d4e4f505152535455565758595a6162636465666768696a6b6c6d6e6f707172737475767778797a303132333435363738392b2f3c73766720786d6c6e733d22687474703a2f2f7777772e77332e6f72672f323030302f73766722207072657365727665417370656374526174696f3d22784d696e594d696e206d656574222076696577426f783d223020302033353020333530223e3c7374796c653e2e62617365207b2066696c6c3a2077686974653b20666f6e742d66616d696c793a206d6f6e6f73706163653b20666f6e742d73697a653a20313470783b207d3c2f7374796c653e3c726563742077696474683d223130302522206865696768743d2231303025222066696c6c3d222341363633434322202f3e3c7465787420783d2231302220793d2232302220636c6173733d2262617365223e3c2f746578743e3c7465787420783d2231302220793d2234302220636c6173733d2262617365223ea2646970667358221220fbbcbfbf7325249f31d059e7990597d661eeaf784d2644b80f2cc3f3bdc8d84164736f6c63430008000033",
  "linkReferences": {},
  "deployedLinkReferences": {}
}