{
  "_format": "hh-sol-artifact-1",
  "contractName": "Gear",
  "sourceName": "contracts/Token.sol",
  "abi": [
    {
      "inputs": [],
      "stateMutability": "nonpayable",
      "type": "constructor"
    },
    {
      "anonymous": false,
      "inputs": [
        {
          "indexed": true,
          "internalType": "address",
          "name": "owner",
          "type": "address"
        },
        {
          "indexed": true,
          "internalType": "address",
          "name": "approved",
          "type": "address"
        },
        {
          "indexed": true,
          "internalType": "uint256",
          "name": "tokenId",
          "type": "uint256"
        }
      ],
      "name": "Approval",
      "type": "event"
    },
    {
      "anonymous": false,
      "inputs": [
        {
          "indexed": true,
          "internalType": "address",
          "name": "owner",
          "type": "address"
        },
        {
          "indexed": true,
          "internalType": "address",
          "name": "operator",
          "type": "address"
        },
        {
          "indexed": false,
          "internalType": "bool",
          "name": "approved",
          "type": "bool"
        }
      ],
      "name": "ApprovalForAll",
      "type": "event"
    },
    {
      "anonymous": false,
      "inputs": [
        {
          "indexed": true,
          "internalType": "address",
          "name": "previousOwner",
          "type": "address"
        },
        {
          "indexed": true,
          "internalType": "address",
          "name": "newOwner",
          "type": "address"
        }
      ],
      "name": "OwnershipTransferred",
      "type": "event"
    },
    {
      "anonymous": false,
      "inputs": [
        {
          "indexed": true,
          "internalType": "address",
          "name": "from",
          "type": "address"
        },
        {
          "indexed": true,
          "internalType": "address",
          "name": "to",
          "type": "address"
        },
        {
          "indexed": true,
          "internalType": "uint256",
          "name": "tokenId",
          "type": "uint256"
        }
      ],
      "name": "Transfer",
      "type": "event"
    },
    {
      "inputs": [
        {
          "internalType": "address",
          "name": "to",
          "type": "address"
        },
        {
          "internalType": "uint256",
          "name": "tokenId",
          "type": "uint256"
        }
      ],
      "name": "approve",
      "outputs": [],
      "stateMutability": "nonpayable",
      "type": "function"
    },
    {
      "inputs": [
        {
          "internalType": "address",
          "name": "owner",
          "type": "address"
        }
      ],
      "name": "balanceOf",
      "outputs": [
        {
          "internalType": "uint256",
          "name": "",
          "type": "uint256"
        }
      ],
      "stateMutability": "view",
      "type": "function"
    },
    {
      "inputs": [
        {
          "internalType": "uint256",
          "name": "tokenId",
          "type": "uint256"
        }
      ],
      "name": "claim",
      "outputs": [],
      "stateMutability": "nonpayable",
      "type": "function"
    },
    {
      "inputs": [
        {
          "internalType": "uint256",
          "name": "tokenId",
          "type": "uint256"
        }
      ],
      "name": "getApproved",
      "outputs": [
        {
          "internalType": "address",
          "name": "",
          "type": "address"
        }
      ],
      "stateMutability": "view",
      "type": "function"
    },
    {
      "inputs": [
        {
          "internalType": "uint256",
          "name": "tokenId",
          "type": "uint256"
        }
      ],
      "name": "getCyberWare",
      "outputs": [
        {
          "internalType": "string",
          "name": "",
          "type": "string"
        }
      ],
      "stateMutability": "view",
      "type": "function"
    },
    {
      "inputs": [
        {
          "internalType": "uint256",
          "name": "tokenId",
          "type": "uint256"
        }
      ],
      "name": "getEyeWear",
      "outputs": [
        {
          "internalType": "string",
          "name": "",
          "type": "string"
        }
      ],
      "stateMutability": "view",
      "type": "function"
    },
    {
      "inputs": [
        {
          "internalType": "uint256",
          "name": "tokenId",
          "type": "uint256"
        }
      ],
      "name": "getFootWear",
      "outputs": [
        {
          "internalType": "string",
          "name": "",
          "type": "string"
        }
      ],
      "stateMutability": "view",
      "type": "function"
    },
    {
      "inputs": [
        {
          "internalType": "uint256",
          "name": "tokenId",
          "type": "uint256"
        }
      ],
      "name": "getHeadWear",
      "outputs": [
        {
          "internalType": "string",
          "name": "",
          "type": "string"
        }
      ],
      "stateMutability": "view",
      "type": "function"
    },
    {
      "inputs": [
        {
          "internalType": "uint256",
          "name": "tokenId",
          "type": "uint256"
        }
      ],
      "name": "getInnerChest",
      "outputs": [
        {
          "internalType": "string",
          "name": "",
          "type": "string"
        }
      ],
      "stateMutability": "view",
      "type": "function"
    },
    {
      "inputs": [
        {
          "internalType": "uint256",
          "name": "tokenId",
          "type": "uint256"
        }
      ],
      "name": "getLegWear",
      "outputs": [
        {
          "internalType": "string",
          "name": "",
          "type": "string"
        }
      ],
      "stateMutability": "view",
      "type": "function"
    },
    {
      "inputs": [
        {
          "internalType": "uint256",
          "name": "tokenId",
          "type": "uint256"
        }
      ],
      "name": "getOuterChest",
      "outputs": [
        {
          "internalType": "string",
          "name": "",
          "type": "string"
        }
      ],
      "stateMutability": "view",
      "type": "function"
    },
    {
      "inputs": [
        {
          "internalType": "uint256",
          "name": "tokenId",
          "type": "uint256"
        }
      ],
      "name": "getWeapon",
      "outputs": [
        {
          "internalType": "string",
          "name": "",
          "type": "string"
        }
      ],
      "stateMutability": "view",
      "type": "function"
    },
    {
      "inputs": [
        {
          "internalType": "address",
          "name": "owner",
          "type": "address"
        },
        {
          "internalType": "address",
          "name": "operator",
          "type": "address"
        }
      ],
      "name": "isApprovedForAll",
      "outputs": [
        {
          "internalType": "bool",
          "name": "",
          "type": "bool"
        }
      ],
      "stateMutability": "view",
      "type": "function"
    },
    {
      "inputs": [],
      "name": "name",
      "outputs": [
        {
          "internalType": "string",
          "name": "",
          "type": "string"
        }
      ],
      "stateMutability": "view",
      "type": "function"
    },
    {
      "inputs": [],
      "name": "owner",
      "outputs": [
        {
          "internalType": "address",
          "name": "",
          "type": "address"
        }
      ],
      "stateMutability": "view",
      "type": "function"
    },
    {
      "inputs": [
        {
          "internalType": "uint256",
          "name": "tokenId",
          "type": "uint256"
        }
      ],
      "name": "ownerClaim",
      "outputs": [],
      "stateMutability": "nonpayable",
      "type": "function"
    },
    {
      "inputs": [
        {
          "internalType": "uint256",
          "name": "tokenId",
          "type": "uint256"
        }
      ],
      "name": "ownerOf",
      "outputs": [
        {
          "internalType": "address",
          "name": "",
          "type": "address"
        }
      ],
      "stateMutability": "view",
      "type": "function"
    },
    {
      "inputs": [],
      "name": "renounceOwnership",
      "outputs": [],
      "stateMutability": "nonpayable",
      "type": "function"
    },
    {
      "inputs": [
        {
          "internalType": "address",
          "name": "from",
          "type": "address"
        },
        {
          "internalType": "address",
          "name": "to",
          "type": "address"
        },
        {
          "internalType": "uint256",
          "name": "tokenId",
          "type": "uint256"
        }
      ],
      "name": "safeTransferFrom",
      "outputs": [],
      "stateMutability": "nonpayable",
      "type": "function"
    },
    {
      "inputs": [
        {
          "internalType": "address",
          "name": "from",
          "type": "address"
        },
        {
          "internalType": "address",
          "name": "to",
          "type": "address"
        },
        {
          "internalType": "uint256",
          "name": "tokenId",
          "type": "uint256"
        },
        {
          "internalType": "bytes",
          "name": "_data",
          "type": "bytes"
        }
      ],
      "name": "safeTransferFrom",
      "outputs": [],
      "stateMutability": "nonpayable",
      "type": "function"
    },
    {
      "inputs": [
        {
          "internalType": "address",
          "name": "operator",
          "type": "address"
        },
        {
          "internalType": "bool",
          "name": "approved",
          "type": "bool"
        }
      ],
      "name": "setApprovalForAll",
      "outputs": [],
      "stateMutability": "nonpayable",
      "type": "function"
    },
    {
      "inputs": [
        {
          "internalType": "bytes4",
          "name": "interfaceId",
          "type": "bytes4"
        }
      ],
      "name": "supportsInterface",
      "outputs": [
        {
          "internalType": "bool",
          "name": "",
          "type": "bool"
        }
      ],
      "stateMutability": "view",
      "type": "function"
    },
    {
      "inputs": [],
      "name": "symbol",
      "outputs": [
        {
          "internalType": "string",
          "name": "",
          "type": "string"
        }
      ],
      "stateMutability": "view",
      "type": "function"
    },
    {
      "inputs": [
        {
          "internalType": "uint256",
          "name": "index",
          "type": "uint256"
        }
      ],
      "name": "tokenByIndex",
      "outputs": [
        {
          "internalType": "uint256",
          "name": "",
          "type": "uint256"
        }
      ],
      "stateMutability": "view",
      "type": "function"
    },
    {
      "inputs": [
        {
          "internalType": "address",
          "name": "owner",
          "type": "address"
        },
        {
          "internalType": "uint256",
          "name": "index",
          "type": "uint256"
        }
      ],
      "name": "tokenOfOwnerByIndex",
      "outputs": [
        {
          "internalType": "uint256",
          "name": "",
          "type": "uint256"
        }
      ],
      "stateMutability": "view",
      "type": "function"
    },
    {
      "inputs": [
        {
          "internalType": "uint256",
          "name": "tokenId",
          "type": "uint256"
        }
      ],
      "name": "tokenURI",
      "outputs": [
        {
          "internalType": "string",
          "name": "",
          "type": "string"
        }
      ],
      "stateMutability": "view",
      "type": "function"
    },
    {
      "inputs": [],
      "name": "totalSupply",
      "outputs": [
        {
          "internalType": "uint256",
          "name": "",
          "type": "uint256"
        }
      ],
      "stateMutability": "view",
      "type": "function"
    },
    {
      "inputs": [
        {
          "internalType": "address",
          "name": "from",
          "type": "address"
        },
        {
          "internalType": "address",
          "name": "to",
          "type": "address"
        },
        {
          "internalType": "uint256",
          "name": "tokenId",
          "type": "uint256"
        }
      ],
      "name": "transferFrom",
      "outputs": [],
      "stateMutability": "nonpayable",
      "type": "function"
    },
    {
      "inputs": [
        {
          "internalType": "address",
          "name": "newOwner",
          "type": "address"
        }
      ],
      "name": "transferOwnership",
      "outputs": [],
      "stateMutability": "nonpayable",
      "type": "function"
    }
  ],
  "bytecode": "0x600d6101208181527f506c61736d6120506973746f6c00000000000000000000000000000000000000610140526080908152600b6101609081527f4c61736572205269666c650000000000000000000000000000000000000000006101805260a05260076101a09081527f5261696c67756e000000000000000000000000000000000000000000000000006101c05260c0526101e09182527f53616d757261692053776f7264000000000000000000000000000000000000006102005260e091909152610260604052600c6102208181527f4261736562616c6c20426174000000000000000000000000000000000000000061024052610100526200010691600562000d94565b506040805160e081018252600d60a082018181527f426f6d626572204a61636b65740000000000000000000000000000000000000060c0840152825282518084018452600681527f486f6f64696500000000000000000000000000000000000000000000000000006020828101919091528084019190915283518085018552600f81527f546163746963616c204a61636b65740000000000000000000000000000000000818301528385015283518085018552600a81527f42616467652d436f6174000000000000000000000000000000000000000000008183015260608401528351808501909452600b84527f526f636b657220566573740000000000000000000000000000000000000000009084015260808201929092526200022e9190600562000d94565b506040805160e081018252600860a082019081527f54616e6b2d546f7000000000000000000000000000000000000000000000000060c0830152815281518083018352600a81527f547572746c656e65636b000000000000000000000000000000000000000000006020828101919091528083019190915282518084018452600f81527f4c65617468657220427573746965720000000000000000000000000000000000818301528284015282518084018452600b81527f44726573732053686972740000000000000000000000000000000000000000008183015260608301528251808401909352600783527f542d5368697274000000000000000000000000000000000000000000000000009083015260808101919091526200035890600e90600562000d94565b506040805160e081018252600c60a082019081527f4261736562616c6c20436170000000000000000000000000000000000000000060c0830152815281518083018352600781527f42616e64616e6100000000000000000000000000000000000000000000000000602082810191909152808301919091528251808401845260138082527f426f7373204d6166696f736f205472696c6279000000000000000000000000008284015283850191909152835180850185529081527f436172626f6e2046696265722048656c6d6574000000000000000000000000008183015260608301528251808401909352600683527f4265616e696500000000000000000000000000000000000000000000000000009083015260808101919091526200048590600f90600562000d94565b506040518060a001604052806040518060400160405280600b81526020017f436172676f2050616e747300000000000000000000000000000000000000000081525081526020016040518060400160405280600e81526020017f4375742d6f66662053686f72747300000000000000000000000000000000000081525081526020016040518060400160405280600a81526020017f537765617470616e74730000000000000000000000000000000000000000000081525081526020016040518060400160405280601081526020017f436f72706f7261746520536c61636b730000000000000000000000000000000081525081526020016040518060400160405280600d81526020017f4c6561746865722050616e7473000000000000000000000000000000000000008152508152506010906005620005c892919062000d94565b506040805160e081018252600b60a082019081527f44726573732053686f657300000000000000000000000000000000000000000060c0830152815281518083018352600c8082527f436f6d62617420426f6f747300000000000000000000000000000000000000006020838101919091528084019290925283518085018552600881527f536e65616b6572730000000000000000000000000000000000000000000000008184015283850152835180850185529081527f4d6f6e6b6579204b69636b7300000000000000000000000000000000000000008183015260608301528251808401909352600d83527f4368656c73656120426f6f747300000000000000000000000000000000000000908301526080810191909152620006f290601190600562000d94565b506040518060a001604052806040518060400160405280600881526020017f41766961746f727300000000000000000000000000000000000000000000000081525081526020016040518060400160405280600881526020017f457965706174636800000000000000000000000000000000000000000000000081525081526020016040518060400160405280600c81526020017f5465636820476f67676c6573000000000000000000000000000000000000000081525081526020016040518060400160405280600581526020017f4d656e706f00000000000000000000000000000000000000000000000000000081525081526020016040518060400160405280601081526020017f53706f72742053756e676c61737365730000000000000000000000000000000081525081525060129060056200083592919062000d94565b506040805160e081018252601060a082018181527f4d6563686174726f6e696320436f72650000000000000000000000000000000060c08401528252825180840184529081527f4f70746963616c20456e68616e636572000000000000000000000000000000006020828101919091528083019190915282518084018452601481527f53796e617074696320416363656c657261746f72000000000000000000000000818301528284015282518084018452600d81527f42696f6e6963204a6f696e7473000000000000000000000000000000000000008183015260608301528251808401909352600f83527f5375626465726d616c2041726d6f7200000000000000000000000000000000009083015260808101919091526200095e90601390600562000d94565b506040805160e081018252600660a082019081527f50737963686f000000000000000000000000000000000000000000000000000060c0830152815281518083018352600d81527f506f6c79636172626f6e617465000000000000000000000000000000000000006020828101919091528083019190915282518084018452600e81527f486561742d526573697374616e74000000000000000000000000000000000000818301528284015282518084018452600a8082527f5265696e666f7263656400000000000000000000000000000000000000000000828401526060840191909152835180850190945283527f556c7472616c696768740000000000000000000000000000000000000000000090830152608081019190915262000a8a90601490600562000d94565b506040805160c0810182526006608082018181527f41746f6d6963000000000000000000000000000000000000000000000000000060a0840152825282518084018452600581527f4d656368610000000000000000000000000000000000000000000000000000006020828101919091528084019190915283518085018552600381527f566f780000000000000000000000000000000000000000000000000000000000818301528385015283518085019094529083527f4379626f7267000000000000000000000000000000000000000000000000000090830152606081019190915262000b7e90601590600462000df8565b506040805160c0810182526006608082019081527f566563746f72000000000000000000000000000000000000000000000000000060a083015281528151808301835260038082527f496365000000000000000000000000000000000000000000000000000000000060208381019190915280840192909252835180850185529081527f4e6574000000000000000000000000000000000000000000000000000000000081830152828401528251808401909352600783527f4d616368696e650000000000000000000000000000000000000000000000000090830152606081019190915262000c7390601690600462000df8565b5034801562000c8157600080fd5b506040518060400160405280600481526020017f47656172000000000000000000000000000000000000000000000000000000008152506040518060400160405280600481526020017f4745415200000000000000000000000000000000000000000000000000000000815250816000908051906020019062000d0692919062000e4a565b50805162000d1c90600190602084019062000e4a565b50506001600a555062000d3862000d3262000d3e565b62000d42565b62000fa8565b3390565b600b80546001600160a01b038381166001600160a01b0319831681179093556040519116919082907f8be0079c531659141344cd1fd0a4f28419497f9722a3daafe3b4186f6b6457e090600090a35050565b82805482825590600052602060002090810192821562000de6579160200282015b8281111562000de6578251805162000dd591849160209091019062000e4a565b509160200191906001019062000db5565b5062000df492915062000ed5565b5090565b82805482825590600052602060002090810192821562000de6579160200282015b8281111562000de6578251805162000e3991849160209091019062000e4a565b509160200191906001019062000e19565b82805462000e589062000f52565b90600052602060002090601f01602090048101928262000e7c576000855562000ec7565b82601f1062000e9757805160ff191683800117855562000ec7565b8280016001018555821562000ec7579182015b8281111562000ec757825182559160200191906001019062000eaa565b5062000df492915062000ef6565b8082111562000df457600062000eec828262000f0d565b5060010162000ed5565b5b8082111562000df4576000815560010162000ef7565b50805462000f1b9062000f52565b6000825580601f1062000f2f575062000f4f565b601f01602090049060005260206000209081019062000f4f919062000ef6565b50565b60028104600182168062000f6757607f821691505b6020821081141562000fa2577f4e487b7100000000000000000000000000000000000000000000000000000000600052602260045260246000fd5b50919050565b6133198062000fb86000396000f3fe608060405234801561001057600080fd5b50600436106101cf5760003560e01c8063715018a611610104578063a22cb465116100a2578063c87b56dd11610071578063c87b56dd146103b7578063e64c11e2146103ca578063e985e9c5146103dd578063f2fde38b146103f0576101cf565b8063a22cb4651461036b578063ad8f49401461037e578063ae1cf38f14610391578063b88d4fde146103a4576101cf565b80638da5cb5b116100de5780638da5cb5b1461033557806392a9c9341461033d57806395d89b41146103505780639e41b73f14610358576101cf565b8063715018a61461030757806376a6b33c1461030f57806385af54c714610322576101cf565b80632f745c5911610171578063434f48c41161014b578063434f48c4146102bb5780634f6ccce7146102ce5780636352211e146102e157806370a08231146102f4576101cf565b80632f745c5914610282578063379607f51461029557806342842e0e146102a8576101cf565b8063095ea7b3116101ad578063095ea7b31461023257806318160ddd146102475780631e4e0e6e1461025c57806323b872dd1461026f576101cf565b806301ffc9a7146101d457806306fdde03146101fd578063081812fc14610212575b600080fd5b6101e76101e236600461247c565b610403565b6040516101f491906129f2565b60405180910390f35b610205610430565b6040516101f491906129fd565b6102256102203660046124b4565b6104c2565b6040516101f491906129a1565b610245610240366004612453565b61050e565b005b61024f6105a6565b6040516101f49190612f1f565b61020561026a3660046124b4565b6105ac565b61024561027d366004612312565b6106a7565b61024f610290366004612453565b6106df565b6102456102a33660046124b4565b610731565b6102456102b6366004612312565b61079e565b6102456102c93660046124b4565b6107b9565b61024f6102dc3660046124b4565b610859565b6102256102ef3660046124b4565b6108b4565b61024f6103023660046122bf565b6108e9565b61024561092d565b61020561031d3660046124b4565b610978565b6102056103303660046124b4565b610a68565b610225610b58565b61020561034b3660046124b4565b610b67565b610205610c58565b6102056103663660046124b4565b610c67565b610245610379366004612419565b610d5a565b61020561038c3660046124b4565b610e28565b61020561039f3660046124b4565b610f1a565b6102456103b236600461234d565b61100b565b6102056103c53660046124b4565b61104a565b6102056103d83660046124b4565b6112f4565b6101e76103eb3660046122e0565b6113e6565b6102456103fe3660046122bf565b611414565b60006001600160e01b0319821663780e9d6360e01b1480610428575061042882611485565b90505b919050565b60606000805461043f90612fc2565b80601f016020809104026020016040519081016040528092919081815260200182805461046b90612fc2565b80156104b85780601f1061048d576101008083540402835291602001916104b8565b820191906000526020600020905b81548152906001019060200180831161049b57829003601f168201915b5050505050905090565b60006104cd826114c5565b6104f25760405162461bcd60e51b81526004016104e990612d16565b60405180910390fd5b506000908152600460205260409020546001600160a01b031690565b6000610519826108b4565b9050806001600160a01b0316836001600160a01b0316141561054d5760405162461bcd60e51b81526004016104e990612e0a565b806001600160a01b031661055f6114e2565b6001600160a01b0316148061057b575061057b816103eb6114e2565b6105975760405162461bcd60e51b81526004016104e990612bf1565b6105a183836114e6565b505050565b60085490565b6060610428826040518060400160405280600581526020016424a72722a960d91b815250600e805480602002602001604051908101604052809291908181526020016000905b8282101561069e57838290600052602060002001805461061190612fc2565b80601f016020809104026020016040519081016040528092919081815260200182805461063d90612fc2565b801561068a5780601f1061065f5761010080835404028352916020019161068a565b820191906000526020600020905b81548152906001019060200180831161066d57829003601f168201915b5050505050815260200190600101906105f2565b50505050611554565b6106b86106b26114e2565b8261187f565b6106d45760405162461bcd60e51b81526004016104e990612e4b565b6105a1838383611904565b60006106ea836108e9565b82106107085760405162461bcd60e51b81526004016104e990612a10565b506001600160a01b03919091166000908152600660209081526040808320938352929052205490565b6002600a5414156107545760405162461bcd60e51b81526004016104e990612ee8565b6002600a5580158015906107695750611e6281105b6107855760405162461bcd60e51b81526004016104e990612d97565b6107966107906114e2565b82611a31565b506001600a55565b6105a18383836040518060200160405280600081525061100b565b6002600a5414156107dc5760405162461bcd60e51b81526004016104e990612ee8565b6002600a556107e96114e2565b6001600160a01b03166107fa610b58565b6001600160a01b0316146108205760405162461bcd60e51b81526004016104e990612d62565b611e61811180156108325750611f4181105b61084e5760405162461bcd60e51b81526004016104e990612d97565b610796610790610b58565b60006108636105a6565b82106108815760405162461bcd60e51b81526004016104e990612e9c565b600882815481106108a257634e487b7160e01b600052603260045260246000fd5b90600052602060002001549050919050565b6000818152600260205260408120546001600160a01b0316806104285760405162461bcd60e51b81526004016104e990612c98565b60006001600160a01b0382166109115760405162461bcd60e51b81526004016104e990612c4e565b506001600160a01b031660009081526003602052604090205490565b6109356114e2565b6001600160a01b0316610946610b58565b6001600160a01b03161461096c5760405162461bcd60e51b81526004016104e990612d62565b6109766000611a4f565b565b6060610428826040518060400160405280600381526020016245594560e81b8152506012805480602002602001604051908101604052809291908181526020016000905b8282101561069e5783829060005260206000200180546109db90612fc2565b80601f0160208091040260200160405190810160405280929190818152602001828054610a0790612fc2565b8015610a545780601f10610a2957610100808354040283529160200191610a54565b820191906000526020600020905b815481529060010190602001808311610a3757829003601f168201915b5050505050815260200190600101906109bc565b606061042882604051806040016040528060038152602001624c454760e81b8152506010805480602002602001604051908101604052809291908181526020016000905b8282101561069e578382906000526020600020018054610acb90612fc2565b80601f0160208091040260200160405190810160405280929190818152602001828054610af790612fc2565b8015610b445780601f10610b1957610100808354040283529160200191610b44565b820191906000526020600020905b815481529060010190602001808311610b2757829003601f168201915b505050505081526020019060010190610aac565b600b546001600160a01b031690565b606061042882604051806040016040528060048152602001631211505160e21b815250600f805480602002602001604051908101604052809291908181526020016000905b8282101561069e578382906000526020600020018054610bcb90612fc2565b80601f0160208091040260200160405190810160405280929190818152602001828054610bf790612fc2565b8015610c445780601f10610c1957610100808354040283529160200191610c44565b820191906000526020600020905b815481529060010190602001808311610c2757829003601f168201915b505050505081526020019060010190610bac565b60606001805461043f90612fc2565b606061042882604051806040016040528060068152602001652ba2a0a827a760d11b815250600c805480602002602001604051908101604052809291908181526020016000905b8282101561069e578382906000526020600020018054610ccd90612fc2565b80601f0160208091040260200160405190810160405280929190818152602001828054610cf990612fc2565b8015610d465780601f10610d1b57610100808354040283529160200191610d46565b820191906000526020600020905b815481529060010190602001808311610d2957829003601f168201915b505050505081526020019060010190610cae565b610d626114e2565b6001600160a01b0316826001600160a01b03161415610d935760405162461bcd60e51b81526004016104e990612b6e565b8060056000610da06114e2565b6001600160a01b03908116825260208083019390935260409182016000908120918716808252919093529120805460ff191692151592909217909155610de46114e2565b6001600160a01b03167f17307eab39ab6107e8899845ad3d59bd9653f200f220920489ca2b5937696c3183604051610e1c91906129f2565b60405180910390a35050565b6060610428826040518060400160405280600581526020016421aca122a960d91b8152506013805480602002602001604051908101604052809291908181526020016000905b8282101561069e578382906000526020600020018054610e8d90612fc2565b80601f0160208091040260200160405190810160405280929190818152602001828054610eb990612fc2565b8015610f065780601f10610edb57610100808354040283529160200191610f06565b820191906000526020600020905b815481529060010190602001808311610ee957829003601f168201915b505050505081526020019060010190610e6e565b606061042882604051806040016040528060048152602001631193d3d560e21b8152506011805480602002602001604051908101604052809291908181526020016000905b8282101561069e578382906000526020600020018054610f7e90612fc2565b80601f0160208091040260200160405190810160405280929190818152602001828054610faa90612fc2565b8015610ff75780601f10610fcc57610100808354040283529160200191610ff7565b820191906000526020600020905b815481529060010190602001808311610fda57829003601f168201915b505050505081526020019060010190610f5f565b61101c6110166114e2565b8361187f565b6110385760405162461bcd60e51b81526004016104e990612e4b565b61104484848484611aa1565b50505050565b6060611054612267565b60405180610140016040528061010381526020016131b96101039139815261107b83610c67565b81600160200201819052506040518060600160405280602881526020016132bc6028913960408201526110ad836112f4565b6060808301919091526040805191820190526028808252613085602083013960808201526110da836105ac565b60a0820152604080516060810190915260288082526130ff602083013960c082015261110583610b67565b60e082015260408051606081019091526029808252613127602083013961010082015261113183610a68565b610120820152604080516060810190915260298082526130d6602083013961014082015261115e83610f1a565b61016082015260408051606081019091526029808252613150602083013961018082015261118b83610978565b6101a0820152604080516060810190915260298082526130ad60208301396101c08201526111b883610e28565b6101e0820152604080518082018252600d81526c1e17ba32bc3a1f1e17b9bb339f60991b602080830191909152610200840191909152825181840151838501516060860151608087015160a088015160c089015160e08a01516101008b0151995160009a6112289a90910161257a565b60408051808303601f19018152908290526101208401516101408501516101608601516101808701516101a08801516101c08901516101e08a01516102008b015197995061127b988a989060200161257a565b604051602081830303815290604052905060006112c861129a86611ad4565b6112a384611bef565b6040516020016112b4929190612819565b604051602081830303815290604052611bef565b9050806040516020016112db91906127d4565b60408051808303601f1901815291905295945050505050565b6060610428826040518060400160405280600581526020016427aaaa22a960d91b815250600d805480602002602001604051908101604052809291908181526020016000905b8282101561069e57838290600052602060002001805461135990612fc2565b80601f016020809104026020016040519081016040528092919081815260200182805461138590612fc2565b80156113d25780601f106113a7576101008083540402835291602001916113d2565b820191906000526020600020905b8154815290600101906020018083116113b557829003601f168201915b50505050508152602001906001019061133a565b6001600160a01b03918216600090815260056020908152604080832093909416825291909152205460ff1690565b61141c6114e2565b6001600160a01b031661142d610b58565b6001600160a01b0316146114535760405162461bcd60e51b81526004016104e990612d62565b6001600160a01b0381166114795760405162461bcd60e51b81526004016104e990612aad565b61148281611a4f565b50565b60006001600160e01b031982166380ac58cd60e01b14806114b657506001600160e01b03198216635b5e139f60e01b145b80610428575061042882611d63565b6000908152600260205260409020546001600160a01b0316151590565b3390565b600081815260046020526040902080546001600160a01b0319166001600160a01b038416908117909155819061151b826108b4565b6001600160a01b03167f8c5be1e5ebec7d5bd14f71427d1e84f3dd0314c0f7b2291e5b200ac8c7c3b92560405160405180910390a45050565b6060600061158a8461156587611ad4565b60405160200161157692919061254b565b604051602081830303815290604052611d7c565b905060008384518361159c9190613018565b815181106115ba57634e487b7160e01b600052603260045260246000fd5b6020026020010151905060006033836115d39190613018565b9050602881111561163857601480546115ec9085613018565b8154811061160a57634e487b7160e01b600052603260045260246000fd5b906000526020600020018260405160200161162692919061263a565b60405160208183030381529060405291505b603181106118755761164861228f565b601580546116569086613018565b8154811061167457634e487b7160e01b600052603260045260246000fd5b90600052602060002001805461168990612fc2565b80601f01602080910402602001604051908101604052809291908181526020018280546116b590612fc2565b80156117025780601f106116d757610100808354040283529160200191611702565b820191906000526020600020905b8154815290600101906020018083116116e557829003601f168201915b50505050508160006002811061172857634e487b7160e01b600052603260045260246000fd5b60200201526016805461173b9086613018565b8154811061175957634e487b7160e01b600052603260045260246000fd5b90600052602060002001805461176e90612fc2565b80601f016020809104026020016040519081016040528092919081815260200182805461179a90612fc2565b80156117e75780601f106117bc576101008083540402835291602001916117e7565b820191906000526020600020905b8154815290600101906020018083116117ca57829003601f168201915b50505050508160016002811061180d57634e487b7160e01b600052603260045260246000fd5b6020020152603182141561184957805160208083015160405161183393928791016126e8565b6040516020818303038152906040529250611873565b80516020808301516040516118619392879101612756565b60405160208183030381529060405292505b505b5095945050505050565b600061188a826114c5565b6118a65760405162461bcd60e51b81526004016104e990612ba5565b60006118b1836108b4565b9050806001600160a01b0316846001600160a01b031614806118ec5750836001600160a01b03166118e1846104c2565b6001600160a01b0316145b806118fc57506118fc81856113e6565b949350505050565b826001600160a01b0316611917826108b4565b6001600160a01b03161461193d5760405162461bcd60e51b81526004016104e990612dc1565b6001600160a01b0382166119635760405162461bcd60e51b81526004016104e990612b2a565b61196e838383611dad565b6119796000826114e6565b6001600160a01b03831660009081526003602052604081208054600192906119a2908490612f7f565b90915550506001600160a01b03821660009081526003602052604081208054600192906119d0908490612f34565b909155505060008181526002602052604080822080546001600160a01b0319166001600160a01b0386811691821790925591518493918716917fddf252ad1be2c89b69c2b068fc378daa952ba7f163c4a11628f55a4df523b3ef91a4505050565b611a4b828260405180602001604052806000815250611e36565b5050565b600b80546001600160a01b038381166001600160a01b0319831681179093556040519116919082907f8be0079c531659141344cd1fd0a4f28419497f9722a3daafe3b4186f6b6457e090600090a35050565b611aac848484611904565b611ab884848484611e69565b6110445760405162461bcd60e51b81526004016104e990612a5b565b606081611af957506040805180820190915260018152600360fc1b602082015261042b565b8160005b8115611b235780611b0d81612ffd565b9150611b1c9050600a83612f4c565b9150611afd565b60008167ffffffffffffffff811115611b4c57634e487b7160e01b600052604160045260246000fd5b6040519080825280601f01601f191660200182016040528015611b76576020820181803683370190505b5090505b84156118fc57611b8b600183612f7f565b9150611b98600a86613018565b611ba3906030612f34565b60f81b818381518110611bc657634e487b7160e01b600052603260045260246000fd5b60200101906001600160f81b031916908160001a905350611be8600a86612f4c565b9450611b7a565b805160609080611c0f57505060408051602081019091526000815261042b565b60006003611c1e836002612f34565b611c289190612f4c565b611c33906004612f60565b90506000611c42826020612f34565b67ffffffffffffffff811115611c6857634e487b7160e01b600052604160045260246000fd5b6040519080825280601f01601f191660200182016040528015611c92576020820181803683370190505b5090506000604051806060016040528060408152602001613179604091399050600181016020830160005b86811015611d1e576003818a01810151603f601282901c8116860151600c83901c8216870151600684901c831688015192909316870151600891821b60ff94851601821b92841692909201901b91160160e01b835260049092019101611cbd565b506003860660018114611d385760028114611d4957611d55565b613d3d60f01b600119830152611d55565b603d60f81b6000198301525b505050918152949350505050565b6001600160e01b031981166301ffc9a760e01b14919050565b600081604051602001611d8f919061252f565b60408051601f19818403018152919052805160209091012092915050565b611db88383836105a1565b6001600160a01b038316611dd457611dcf81611f84565b611df7565b816001600160a01b0316836001600160a01b031614611df757611df78382611fc8565b6001600160a01b038216611e1357611e0e81612065565b6105a1565b826001600160a01b0316826001600160a01b0316146105a1576105a1828261213e565b611e408383612182565b611e4d6000848484611e69565b6105a15760405162461bcd60e51b81526004016104e990612a5b565b6000611e7d846001600160a01b0316612261565b15611f7957836001600160a01b031663150b7a02611e996114e2565b8786866040518563ffffffff1660e01b8152600401611ebb94939291906129b5565b602060405180830381600087803b158015611ed557600080fd5b505af1925050508015611f05575060408051601f3d908101601f19168201909252611f0291810190612498565b60015b611f5f573d808015611f33576040519150601f19603f3d011682016040523d82523d6000602084013e611f38565b606091505b508051611f575760405162461bcd60e51b81526004016104e990612a5b565b805181602001fd5b6001600160e01b031916630a85bd0160e11b1490506118fc565b506001949350505050565b600880546000838152600960205260408120829055600182018355919091527ff3f7a9fe364faab93b216da50a3214154f22a0a2b415b23a84c8169e8b636ee30155565b60006001611fd5846108e9565b611fdf9190612f7f565b600083815260076020526040902054909150808214612032576001600160a01b03841660009081526006602090815260408083208584528252808320548484528184208190558352600790915290208190555b5060009182526007602090815260408084208490556001600160a01b039094168352600681528383209183525290812055565b60085460009061207790600190612f7f565b600083815260096020526040812054600880549394509092849081106120ad57634e487b7160e01b600052603260045260246000fd5b9060005260206000200154905080600883815481106120dc57634e487b7160e01b600052603260045260246000fd5b600091825260208083209091019290925582815260099091526040808220849055858252812055600880548061212257634e487b7160e01b600052603160045260246000fd5b6001900381819060005260206000200160009055905550505050565b6000612149836108e9565b6001600160a01b039093166000908152600660209081526040808320868452825280832085905593825260079052919091209190915550565b6001600160a01b0382166121a85760405162461bcd60e51b81526004016104e990612ce1565b6121b1816114c5565b156121ce5760405162461bcd60e51b81526004016104e990612af3565b6121da60008383611dad565b6001600160a01b0382166000908152600360205260408120805460019290612203908490612f34565b909155505060008181526002602052604080822080546001600160a01b0319166001600160a01b03861690811790915590518392907fddf252ad1be2c89b69c2b068fc378daa952ba7f163c4a11628f55a4df523b3ef908290a45050565b3b151590565b6040518061022001604052806011905b60608152602001906001900390816122775790505090565b6040805180820190915260608152600160208201612277565b80356001600160a01b038116811461042b57600080fd5b6000602082840312156122d0578081fd5b6122d9826122a8565b9392505050565b600080604083850312156122f2578081fd5b6122fb836122a8565b9150612309602084016122a8565b90509250929050565b600080600060608486031215612326578081fd5b61232f846122a8565b925061233d602085016122a8565b9150604084013590509250925092565b60008060008060808587031215612362578081fd5b61236b856122a8565b9350602061237a8187016122a8565b935060408601359250606086013567ffffffffffffffff8082111561239d578384fd5b818801915088601f8301126123b0578384fd5b8135818111156123c2576123c2613058565b604051601f8201601f19168101850183811182821017156123e5576123e5613058565b60405281815283820185018b10156123fb578586fd5b81858501868301379081019093019390935250939692955090935050565b6000806040838503121561242b578182fd5b612434836122a8565b915060208301358015158114612448578182fd5b809150509250929050565b60008060408385031215612465578182fd5b61246e836122a8565b946020939093013593505050565b60006020828403121561248d578081fd5b81356122d98161306e565b6000602082840312156124a9578081fd5b81516122d98161306e565b6000602082840312156124c5578081fd5b5035919050565b600081518084526124e4816020860160208601612f96565b601f01601f19169290920160200192915050565b6000815161250a818560208601612f96565b9290920192915050565b600160fd1b815260010190565b61227d60f01b815260020190565b60008251612541818460208701612f96565b9190910192915050565b6000835161255d818460208801612f96565b835190830190612571818360208801612f96565b01949350505050565b60008a5161258c818460208f01612f96565b8a5161259e8183860160208f01612f96565b8a5191840101906125b3818360208e01612f96565b89519101906125c6818360208d01612f96565b88516125d88183850160208d01612f96565b88519290910101906125ee818360208b01612f96565b86516126008183850160208b01612f96565b8651929091010190612616818360208901612f96565b84516126288183850160208901612f96565b9101019b9a5050505050505050505050565b825460009081906002810460018083168061265657607f831692505b602080841082141561267657634e487b7160e01b87526022600452602487fd5b81801561268a576001811461269b576126c7565b60ff198616895284890196506126c7565b6126a48b612f28565b885b868110156126bf5781548b8201529085019083016126a6565b505084890196505b5050505050506126df6126d982612514565b856124f8565b95945050505050565b601160f91b81528351600090612705816001850160208901612f96565b600160fd1b6001918401918201528451612726816002840160208901612f96565b61011160f51b600292909101918201528351612749816004840160208801612f96565b0160040195945050505050565b601160f91b81528351600090612773816001850160208901612f96565b600160fd1b6001918401918201528451612794816002840160208901612f96565b61011160f51b6002929091019182015283516127b7816004840160208801612f96565b62202b3160e81b6004929091019182015260070195945050505050565b60007f646174613a6170706c69636174696f6e2f6a736f6e3b6261736536342c0000008252825161280c81601d850160208701612f96565b91909101601d0192915050565b727b226e616d65223a20224c6f6f74626f78202360681b81528251600090612848816013850160208801612f96565b7f222c20226465736372697074696f6e223a2022476561722069732072616e646f6013918401918201527f6d697a65642063797068657270756e6b207472617070696e67732067656e657260338201527f6174656420616e642073746f726564206f6e20636861696e2e2053746174732c60538201527f20696d616765732c20616e64206f746865722066756e6374696f6e616c69747960738201527f2061726520696e74656e74696f6e616c6c79206f6d697474656420666f72206f60938201527f746865727320746f20696e746572707265742e204665656c206672656520746f60b38201527f20757365204765617220696e20616e792077617920796f752077616e742e222c60d38201527f2022696d616765223a2022646174613a696d6167652f7376672b786d6c3b626160f3820152641cd94d8d0b60da1b6101138201526126df61299c6101188301866124f8565b612521565b6001600160a01b0391909116815260200190565b6001600160a01b03858116825284166020820152604081018390526080606082018190526000906129e8908301846124cc565b9695505050505050565b901515815260200190565b6000602082526122d960208301846124cc565b6020808252602b908201527f455243373231456e756d657261626c653a206f776e657220696e646578206f7560408201526a74206f6620626f756e647360a81b606082015260800190565b60208082526032908201527f4552433732313a207472616e7366657220746f206e6f6e20455243373231526560408201527131b2b4bb32b91034b6b83632b6b2b73a32b960711b606082015260800190565b60208082526026908201527f4f776e61626c653a206e6577206f776e657220697320746865207a65726f206160408201526564647265737360d01b606082015260800190565b6020808252601c908201527f4552433732313a20746f6b656e20616c7265616479206d696e74656400000000604082015260600190565b60208082526024908201527f4552433732313a207472616e7366657220746f20746865207a65726f206164646040820152637265737360e01b606082015260800190565b60208082526019908201527f4552433732313a20617070726f766520746f2063616c6c657200000000000000604082015260600190565b6020808252602c908201527f4552433732313a206f70657261746f7220717565727920666f72206e6f6e657860408201526b34b9ba32b73a103a37b5b2b760a11b606082015260800190565b60208082526038908201527f4552433732313a20617070726f76652063616c6c6572206973206e6f74206f7760408201527f6e6572206e6f7220617070726f76656420666f7220616c6c0000000000000000606082015260800190565b6020808252602a908201527f4552433732313a2062616c616e636520717565727920666f7220746865207a65604082015269726f206164647265737360b01b606082015260800190565b60208082526029908201527f4552433732313a206f776e657220717565727920666f72206e6f6e657869737460408201526832b73a103a37b5b2b760b91b606082015260800190565b6020808252818101527f4552433732313a206d696e7420746f20746865207a65726f2061646472657373604082015260600190565b6020808252602c908201527f4552433732313a20617070726f76656420717565727920666f72206e6f6e657860408201526b34b9ba32b73a103a37b5b2b760a11b606082015260800190565b6020808252818101527f4f776e61626c653a2063616c6c6572206973206e6f7420746865206f776e6572604082015260600190565b60208082526010908201526f151bdad95b881251081a5b9d985b1a5960821b604082015260600190565b60208082526029908201527f4552433732313a207472616e73666572206f6620746f6b656e2074686174206960408201526839903737ba1037bbb760b91b606082015260800190565b60208082526021908201527f4552433732313a20617070726f76616c20746f2063757272656e74206f776e656040820152603960f91b606082015260800190565b60208082526031908201527f4552433732313a207472616e736665722063616c6c6572206973206e6f74206f6040820152701ddb995c881b9bdc88185c1c1c9bdd9959607a1b606082015260800190565b6020808252602c908201527f455243373231456e756d657261626c653a20676c6f62616c20696e646578206f60408201526b7574206f6620626f756e647360a01b606082015260800190565b6020808252601f908201527f5265656e7472616e637947756172643a207265656e7472616e742063616c6c00604082015260600190565b90815260200190565b60009081526020902090565b60008219821115612f4757612f4761302c565b500190565b600082612f5b57612f5b613042565b500490565b6000816000190483118215151615612f7a57612f7a61302c565b500290565b600082821015612f9157612f9161302c565b500390565b60005b83811015612fb1578181015183820152602001612f99565b838111156110445750506000910152565b600281046001821680612fd657607f821691505b60208210811415612ff757634e487b7160e01b600052602260045260246000fd5b50919050565b60006000198214156130115761301161302c565b5060010190565b60008261302757613027613042565b500690565b634e487b7160e01b600052601160045260246000fd5b634e487b7160e01b600052601260045260246000fd5b634e487b7160e01b600052604160045260246000fd5b6001600160e01b03198116811461148257600080fdfe3c2f746578743e3c7465787420783d2231302220793d2236302220636c6173733d2262617365223e3c2f746578743e3c7465787420783d2231302220793d223136302220636c6173733d2262617365223e3c2f746578743e3c7465787420783d2231302220793d223132302220636c6173733d2262617365223e3c2f746578743e3c7465787420783d2231302220793d2238302220636c6173733d2262617365223e3c2f746578743e3c7465787420783d2231302220793d223130302220636c6173733d2262617365223e3c2f746578743e3c7465787420783d2231302220793d223134302220636c6173733d2262617365223e4142434445464748494a4b4c4d4e4f505152535455565758595a6162636465666768696a6b6c6d6e6f707172737475767778797a303132333435363738392b2f3c73766720786d6c6e733d22687474703a2f2f7777772e77332e6f72672f323030302f73766722207072657365727665417370656374526174696f3d22784d696e594d696e206d656574222076696577426f783d223020302033353020333530223e3c7374796c653e2e62617365207b2066696c6c3a2077686974653b20666f6e742d66616d696c793a206d6f6e6f73706163653b20666f6e742d73697a653a20313470783b207d3c2f7374796c653e3c726563742077696474683d223130302522206865696768743d2231303025222066696c6c3d222341363633434322202f3e3c7465787420783d2231302220793d2232302220636c6173733d2262617365223e3c2f746578743e3c7465787420783d2231302220793d2234302220636c6173733d2262617365223ea2646970667358221220b5d59c2b4f462925036e494b831c68f0f4b9f86cedfcf9870b17b48c1bd73f6764736f6c63430008000033",
  "linkReferences": {},
  "deployedLinkReferences": {}
}